{
  "_format": "hh-sol-artifact-1",
  "contractName": "PlatziFood",
  "sourceName": "contracts/PlatziFood.sol",
  "abi": [
    {
      "inputs": [],
      "stateMutability": "nonpayable",
      "type": "constructor"
    },
    {
      "inputs": [
        {
          "internalType": "string",
          "name": "foodUrl",
          "type": "string"
        },
        {
          "internalType": "string",
          "name": "foodName",
          "type": "string"
        },
        {
          "internalType": "string",
          "name": "originCountry",
          "type": "string"
        }
      ],
      "name": "addPlatziFood",
      "outputs": [],
      "stateMutability": "nonpayable",
      "type": "function"
    },
    {
      "inputs": [],
      "name": "getAllPlatziFoods",
      "outputs": [
        {
          "components": [
            {
              "internalType": "address",
              "name": "owner",
              "type": "address"
            },
            {
              "internalType": "string",
              "name": "foodUrl",
              "type": "string"
            },
            {
              "internalType": "string",
              "name": "foodName",
              "type": "string"
            },
            {
              "internalType": "string",
              "name": "originCountry",
              "type": "string"
            }
          ],
          "internalType": "struct PlatziFood.PlatziFoodItem[]",
          "name": "",
          "type": "tuple[]"
        }
      ],
      "stateMutability": "view",
      "type": "function"
    },
    {
      "inputs": [],
      "name": "getPlatziFoodsByOwner",
      "outputs": [
        {
          "components": [
            {
              "internalType": "address",
              "name": "owner",
              "type": "address"
            },
            {
              "internalType": "string",
              "name": "foodUrl",
              "type": "string"
            },
            {
              "internalType": "string",
              "name": "foodName",
              "type": "string"
            },
            {
              "internalType": "string",
              "name": "originCountry",
              "type": "string"
            }
          ],
          "internalType": "struct PlatziFood.PlatziFoodItem[]",
          "name": "",
          "type": "tuple[]"
        }
      ],
      "stateMutability": "view",
      "type": "function"
    }
  ],
  "bytecode": "0x608060405234801561001057600080fd5b50610eb3806100206000396000f3fe608060405234801561001057600080fd5b50600436106100415760003560e01c8063180c450f146100465780631e7c081314610062578063cb0d021814610080575b600080fd5b610060600480360381019061005b9190610a50565b61009e565b005b61006a6101a5565b6040516100779190610cf3565b60405180910390f35b610088610410565b6040516100959190610cf3565b60405180910390f35b600060405180608001604052803373ffffffffffffffffffffffffffffffffffffffff16815260200185815260200184815260200183815250908060018154018082558091505060019003906000526020600020906004020160009091909190915060008201518160000160006101000a81548173ffffffffffffffffffffffffffffffffffffffff021916908373ffffffffffffffffffffffffffffffffffffffff1602179055506020820151816001019080519060200190610163929190610815565b506040820151816002019080519060200190610180929190610815565b50606082015181600301908051906020019061019d929190610815565b505050505050565b60606000805480602002602001604051908101604052809291908181526020016000905b8282101561040757838290600052602060002090600402016040518060800160405290816000820160009054906101000a900473ffffffffffffffffffffffffffffffffffffffff1673ffffffffffffffffffffffffffffffffffffffff1673ffffffffffffffffffffffffffffffffffffffff16815260200160018201805461025290610d44565b80601f016020809104026020016040519081016040528092919081815260200182805461027e90610d44565b80156102cb5780601f106102a0576101008083540402835291602001916102cb565b820191906000526020600020905b8154815290600101906020018083116102ae57829003601f168201915b505050505081526020016002820180546102e490610d44565b80601f016020809104026020016040519081016040528092919081815260200182805461031090610d44565b801561035d5780601f106103325761010080835404028352916020019161035d565b820191906000526020600020905b81548152906001019060200180831161034057829003601f168201915b5050505050815260200160038201805461037690610d44565b80601f01602080910402602001604051908101604052809291908181526020018280546103a290610d44565b80156103ef5780601f106103c4576101008083540402835291602001916103ef565b820191906000526020600020905b8154815290600101906020018083116103d257829003601f168201915b505050505081525050815260200190600101906101c9565b50505050905090565b60606000805b6000805490508110156104bf573373ffffffffffffffffffffffffffffffffffffffff166000828154811061044e5761044d610d76565b5b906000526020600020906004020160000160009054906101000a900473ffffffffffffffffffffffffffffffffffffffff1673ffffffffffffffffffffffffffffffffffffffff1614156104ac576001826104a99190610dde565b91505b80806104b790610e34565b915050610416565b5060008167ffffffffffffffff8111156104dc576104db610925565b5b60405190808252806020026020018201604052801561051557816020015b61050261089b565b8152602001906001900390816104fa5790505b50905060005b60008054905081101561080c573373ffffffffffffffffffffffffffffffffffffffff166000828154811061055357610552610d76565b5b906000526020600020906004020160000160009054906101000a900473ffffffffffffffffffffffffffffffffffffffff1673ffffffffffffffffffffffffffffffffffffffff1614156107f957600081815481106105b5576105b4610d76565b5b90600052602060002090600402016040518060800160405290816000820160009054906101000a900473ffffffffffffffffffffffffffffffffffffffff1673ffffffffffffffffffffffffffffffffffffffff1673ffffffffffffffffffffffffffffffffffffffff16815260200160018201805461063490610d44565b80601f016020809104026020016040519081016040528092919081815260200182805461066090610d44565b80156106ad5780601f10610682576101008083540402835291602001916106ad565b820191906000526020600020905b81548152906001019060200180831161069057829003601f168201915b505050505081526020016002820180546106c690610d44565b80601f01602080910402602001604051908101604052809291908181526020018280546106f290610d44565b801561073f5780601f106107145761010080835404028352916020019161073f565b820191906000526020600020905b81548152906001019060200180831161072257829003601f168201915b5050505050815260200160038201805461075890610d44565b80601f016020809104026020016040519081016040528092919081815260200182805461078490610d44565b80156107d15780601f106107a6576101008083540402835291602001916107d1565b820191906000526020600020905b8154815290600101906020018083116107b457829003601f168201915b5050505050815250508282815181106107ed576107ec610d76565b5b60200260200101819052505b808061080490610e34565b91505061051b565b50809250505090565b82805461082190610d44565b90600052602060002090601f016020900481019282610843576000855561088a565b82601f1061085c57805160ff191683800117855561088a565b8280016001018555821561088a579182015b8281111561088957825182559160200191906001019061086e565b5b50905061089791906108d9565b5090565b6040518060800160405280600073ffffffffffffffffffffffffffffffffffffffff1681526020016060815260200160608152602001606081525090565b5b808211156108f25760008160009055506001016108da565b5090565b6000604051905090565b600080fd5b600080fd5b600080fd5b600080fd5b6000601f19601f8301169050919050565b7f4e487b7100000000000000000000000000000000000000000000000000000000600052604160045260246000fd5b61095d82610914565b810181811067ffffffffffffffff8211171561097c5761097b610925565b5b80604052505050565b600061098f6108f6565b905061099b8282610954565b919050565b600067ffffffffffffffff8211156109bb576109ba610925565b5b6109c482610914565b9050602081019050919050565b82818337600083830152505050565b60006109f36109ee846109a0565b610985565b905082815260208101848484011115610a0f57610a0e61090f565b5b610a1a8482856109d1565b509392505050565b600082601f830112610a3757610a3661090a565b5b8135610a478482602086016109e0565b91505092915050565b600080600060608486031215610a6957610a68610900565b5b600084013567ffffffffffffffff811115610a8757610a86610905565b5b610a9386828701610a22565b935050602084013567ffffffffffffffff811115610ab457610ab3610905565b5b610ac086828701610a22565b925050604084013567ffffffffffffffff811115610ae157610ae0610905565b5b610aed86828701610a22565b9150509250925092565b600081519050919050565b600082825260208201905092915050565b6000819050602082019050919050565b600073ffffffffffffffffffffffffffffffffffffffff82169050919050565b6000610b4e82610b23565b9050919050565b610b5e81610b43565b82525050565b600081519050919050565b600082825260208201905092915050565b60005b83811015610b9e578082015181840152602081019050610b83565b83811115610bad576000848401525b50505050565b6000610bbe82610b64565b610bc88185610b6f565b9350610bd8818560208601610b80565b610be181610914565b840191505092915050565b6000608083016000830151610c046000860182610b55565b5060208301518482036020860152610c1c8282610bb3565b91505060408301518482036040860152610c368282610bb3565b91505060608301518482036060860152610c508282610bb3565b9150508091505092915050565b6000610c698383610bec565b905092915050565b6000602082019050919050565b6000610c8982610af7565b610c938185610b02565b935083602082028501610ca585610b13565b8060005b85811015610ce15784840389528151610cc28582610c5d565b9450610ccd83610c71565b925060208a01995050600181019050610ca9565b50829750879550505050505092915050565b60006020820190508181036000830152610d0d8184610c7e565b905092915050565b7f4e487b7100000000000000000000000000000000000000000000000000000000600052602260045260246000fd5b60006002820490506001821680610d5c57607f821691505b60208210811415610d7057610d6f610d15565b5b50919050565b7f4e487b7100000000000000000000000000000000000000000000000000000000600052603260045260246000fd5b6000819050919050565b7f4e487b7100000000000000000000000000000000000000000000000000000000600052601160045260246000fd5b6000610de982610da5565b9150610df483610da5565b9250827fffffffffffffffffffffffffffffffffffffffffffffffffffffffffffffffff03821115610e2957610e28610daf565b5b828201905092915050565b6000610e3f82610da5565b91507fffffffffffffffffffffffffffffffffffffffffffffffffffffffffffffffff821415610e7257610e71610daf565b5b60018201905091905056fea2646970667358221220c9fa6c59367e65fdd7264b9cdfea32ba43fabd80c883f02f9d99ae5e79be6cc664736f6c63430008090033",
  "linkReferences": {},
  "deployedLinkReferences": {}
}